{
  "contractName": "Bnbswap",
  "abi": [
    {
      "inputs": [
        {
          "internalType": "contract Binance",
          "name": "_nimbus",
          "type": "address"
        }
      ],
      "stateMutability": "nonpayable",
      "type": "constructor"
    },
    {
      "anonymous": false,
      "inputs": [
        {
          "indexed": false,
          "internalType": "address",
          "name": "account",
          "type": "address"
        },
        {
          "indexed": false,
          "internalType": "address",
          "name": "token",
          "type": "address"
        },
        {
          "indexed": false,
          "internalType": "uint256",
          "name": "amount",
          "type": "uint256"
        },
        {
          "indexed": false,
          "internalType": "uint256",
          "name": "rate",
          "type": "uint256"
        }
      ],
      "name": "BinanceSold",
      "type": "event"
    },
    {
      "anonymous": false,
      "inputs": [
        {
          "indexed": false,
          "internalType": "address",
          "name": "account",
          "type": "address"
        },
        {
          "indexed": false,
          "internalType": "address",
          "name": "token",
          "type": "address"
        },
        {
          "indexed": false,
          "internalType": "uint256",
          "name": "amount",
          "type": "uint256"
        },
        {
          "indexed": false,
          "internalType": "uint256",
          "name": "rate",
          "type": "uint256"
        }
      ],
      "name": "BuyBinance",
      "type": "event"
    },
    {
      "inputs": [],
      "name": "bnb",
      "outputs": [
        {
          "internalType": "contract Binance",
          "name": "",
          "type": "address"
        }
      ],
      "stateMutability": "view",
      "type": "function"
    },
    {
      "inputs": [],
      "name": "name",
      "outputs": [
        {
          "internalType": "string",
          "name": "",
          "type": "string"
        }
      ],
      "stateMutability": "view",
      "type": "function"
    },
    {
      "inputs": [],
      "name": "rate",
      "outputs": [
        {
          "internalType": "uint256",
          "name": "",
          "type": "uint256"
        }
      ],
      "stateMutability": "view",
      "type": "function"
    },
    {
      "inputs": [],
      "name": "buyBinance",
      "outputs": [
        {
          "internalType": "bool",
          "name": "succress",
          "type": "bool"
        }
      ],
      "stateMutability": "payable",
      "type": "function"
    },
    {
      "inputs": [
        {
          "internalType": "uint256",
          "name": "_amount",
          "type": "uint256"
        }
      ],
      "name": "sellBinance",
      "outputs": [
        {
          "internalType": "bool",
          "name": "sccress",
          "type": "bool"
        }
      ],
      "stateMutability": "nonpayable",
      "type": "function"
    }
  ],
  "bytecode": "0x60806040526040518060400160405280601681526020017f436c6f7564734b696e67646f6d53776170206d424e42000000000000000000008152506000908051906020019061004f9291906100dc565b50600160025534801561006157600080fd5b506040516108f93803806108f98339818101604052602081101561008457600080fd5b810190808051906020019092919050505080600160006101000a81548173ffffffffffffffffffffffffffffffffffffffff021916908373ffffffffffffffffffffffffffffffffffffffff16021790555050610187565b828054600181600116156101000203166002900490600052602060002090601f0160209004810192826101125760008555610159565b82601f1061012b57805160ff1916838001178555610159565b82800160010185558215610159579182015b8281111561015857825182559160200191906001019061013d565b5b509050610166919061016a565b5090565b5b8082111561018357600081600090555060010161016b565b5090565b610763806101966000396000f3fe60806040526004361061004a5760003560e01c806306fdde031461004f5780632c4e722e146100df57806345567d431461010a57806349a876e41461012a578063fec851da1461016b575b600080fd5b34801561005b57600080fd5b506100646101bc565b6040518080602001828103825283818151815260200191508051906020019080838360005b838110156100a4578082015181840152602081019050610089565b50505050905090810190601f1680156100d15780820380516001836020036101000a031916815260200191505b509250505060405180910390f35b3480156100eb57600080fd5b506100f461025a565b6040518082815260200191505060405180910390f35b610112610260565b60405180821515815260200191505060405180910390f35b34801561013657600080fd5b5061013f610519565b604051808273ffffffffffffffffffffffffffffffffffffffff16815260200191505060405180910390f35b34801561017757600080fd5b506101a46004803603602081101561018e57600080fd5b810190808035906020019092919050505061053f565b60405180821515815260200191505060405180910390f35b60008054600181600116156101000203166002900480601f0160208091040260200160405190810160405280929190818152602001828054600181600116156101000203166002900480156102525780601f1061022757610100808354040283529160200191610252565b820191906000526020600020905b81548152906001019060200180831161023557829003601f168201915b505050505081565b60025481565b6000806002543402905080600160009054906101000a900473ffffffffffffffffffffffffffffffffffffffff1673ffffffffffffffffffffffffffffffffffffffff166370a08231306040518263ffffffff1660e01b8152600401808273ffffffffffffffffffffffffffffffffffffffff16815260200191505060206040518083038186803b1580156102f457600080fd5b505afa158015610308573d6000803e3d6000fd5b505050506040513d602081101561031e57600080fd5b810190808051906020019092919050505010156103a3576040517f08c379a00000000000000000000000000000000000000000000000000000000081526004018080602001828103825260198152602001807f4e6f7420656e6f75676820746f6b656e20666f7220737761700000000000000081525060200191505060405180910390fd5b600160009054906101000a900473ffffffffffffffffffffffffffffffffffffffff1673ffffffffffffffffffffffffffffffffffffffff1663a9059cbb33836040518363ffffffff1660e01b8152600401808373ffffffffffffffffffffffffffffffffffffffff16815260200182815260200192505050602060405180830381600087803b15801561043657600080fd5b505af115801561044a573d6000803e3d6000fd5b505050506040513d602081101561046057600080fd5b8101908080519060200190929190505050507f46ccbd7d9e37114351365394feb57c94ca7ed849b8169d71830644e70bb7291833600160009054906101000a900473ffffffffffffffffffffffffffffffffffffffff1683600254604051808573ffffffffffffffffffffffffffffffffffffffff1681526020018473ffffffffffffffffffffffffffffffffffffffff16815260200183815260200182815260200194505050505060405180910390a1600191505090565b600160009054906101000a900473ffffffffffffffffffffffffffffffffffffffff1681565b600080600254838161054d57fe5b049050600160009054906101000a900473ffffffffffffffffffffffffffffffffffffffff1673ffffffffffffffffffffffffffffffffffffffff166323b872dd3330866040518463ffffffff1660e01b8152600401808473ffffffffffffffffffffffffffffffffffffffff1681526020018373ffffffffffffffffffffffffffffffffffffffff1681526020018281526020019350505050602060405180830381600087803b15801561060157600080fd5b505af1158015610615573d6000803e3d6000fd5b505050506040513d602081101561062b57600080fd5b8101908080519060200190929190505050503373ffffffffffffffffffffffffffffffffffffffff166108fc829081150290604051600060405180830381858888f19350505050158015610683573d6000803e3d6000fd5b507f7e46c54f7f306d82c5940f6f16d98866ae3ed689a5e96b5282f059ab75b7437833600160009054906101000a900473ffffffffffffffffffffffffffffffffffffffff1683600254604051808573ffffffffffffffffffffffffffffffffffffffff1681526020018473ffffffffffffffffffffffffffffffffffffffff16815260200183815260200182815260200194505050505060405180910390a1600191505091905056fea26469706673582212202de0ab28b7b03368f458a0fa065d8a4ff1376d3e14047a245e9f32f0e71cfdbc64736f6c63430007060033",
  "immutableReferences": {},
  "source": "//SPDX-License-Identifier: MIT\npragma solidity =0.7.6;\n\nimport \"./Binance.sol\";\n\ncontract Bnbswap {\n    string public name = \"CloudsKingdomSwap mBNB\";\n    Binance public bnb;\n    uint256 public rate = 1;\n\n    event BuyBinance(\n        address account,\n        address token,\n        uint256 amount,\n        uint256 rate\n    );\n    event BinanceSold(\n        address account,\n        address token,\n        uint256 amount,\n        uint256 rate\n    );\n\n    constructor(Binance _nimbus) {\n        bnb = _nimbus;\n    }\n\n    function buyBinance() public payable returns (bool succress) {\n        // value of one * Redemption rate\n        uint256 bnbAmount = msg.value * rate;\n        require(\n            bnb.balanceOf(address(this)) >= bnbAmount,\n            \"Not enough token for swap\"\n        );\n        bnb.transfer(msg.sender, bnbAmount);\n\n        emit BuyBinance(msg.sender, address(bnb), bnbAmount, rate);\n\n        return true;\n    }\n\n    function sellBinance(uint256 _amount) public returns (bool sccress) {\n        // calculate the amount of Ether to redeem\n        uint256 etherAmount = _amount / rate;\n        //perform sale\n        bnb.transferFrom(msg.sender, address(this), _amount);\n        payable(msg.sender).transfer(etherAmount);\n        emit BinanceSold(msg.sender, address(bnb), etherAmount, rate);\n        return true;\n    }\n}\n",
  "sourcePath": "C:\\Users\\pongu\\Desktop\\harmony\\harmony-box\\contracts\\Bnbswap.sol",
  "compiler": {
    "name": "solc",
    "version": "0.7.6+commit.7338295f.Emscripten.clang"
  },
  "schemaVersion": "3.4.4",
  "updatedAt": "2022-02-25T20:41:36.452Z",
  "devdoc": {
    "kind": "dev",
    "methods": {},
    "version": 1
  },
  "userdoc": {
    "kind": "user",
    "methods": {},
    "version": 1
  }
}